:02000000E629EF
:0400060000000800EE
:10000A00103083120313FD00FD0B092800000800BD
:10001A00083083120313FC002330FD00FD0B132864
:06002A00FC0B1328080086
:1000300083120313F801F9011030FC00710DF80D63
:10004000F90D7408F8027508031C750FF9020318FE
:1000500030287408F80775080318750FF90703109E
:0A006000F00DF10DFC0B1E28080046
:10006A0083160313BA1B3C28831286113E28831277
:10007A00861583163A1B44288312061146288312D2
:10008A0006158316BA1A4C28831286104E28831234
:10009A00861483163A1A5428831206105628831295
:1000AA00061455185A2806165B28061286160320C7
:1000BA0086128316BA196428831286116628831257
:1000CA00861583163A196C28831206116E28831234
:1000DA0006158316BA187428831286107628831296
:1000EA00861483163A187C28831206107E288312F7
:1000FA000614551882280616832806128616032027
:0E010A008612551C8A280D208B28052008001F
:1001180083120313551083163508BA003520551479
:020128000800CD
:0E012A008312031357088A005608820008004B
:1001380083160313B801053038020318AA283808B3
:100148003707840020308000B80A9F28380837070E
:1001580084008001B80338083707B9000A30F40072
:10016800F5013508F0003608F10018207808F0008D
:100178007908F1003030F0078316390884007008D8
:1001880080000A30F400F5013508F0003608F10067
:10019800182070088316B5007108B6000030710683
:1001A800031DD82800307006031DDB28DD28B8039E
:0401B800AF28080064
:1001BC0083160313B101B2012C08B3002D08B4004F
:1001CC0080302D06F00080307002031DEF280030C7
:1001DC002C020318FD280130B1000030B2002C08AD
:1001EC00003CB3002D08031C013EB401B4023308DB
:1001FC00B5003408B6002E08B7009C200630AF00BE
:10020C000030B0003008003C031D0E292F08003CC4
:10021C00031829292F082E07F20001302F02F000B5
:10022C000030031C013E3002F10070082E078400E0
:10023C000008F00072088400700880000130AF02E2
:10024C00031CB00308292E088400203080003108DC
:10025C00320403194729AF01B0012F082E0784007F
:10026C000008203A031D3E29AF0A0319B00A3329AE
:10027C000130AF02031CB0032F082E0784002D3071
:04028C0080000800E6
:100290005A29803083160313AC006D29C030AC009E
:1002A0006D299430AC006D29D430AC006D298030BC
:1002B000AC006D29831603132C08013A0319492950
:1002C0002C08023A03194E292C08033A0319512924
:1002D0002C08043A0319542957292D03F0002C083F
:1002E000F0077008AC007008BA0035205510EF0117
:1002F0006F0883162E0784000008031989298312CA
:100300006F0883162E0784000008B5008C20EF0AC2
:0803100078298312551408003E
:1003180095208A110A128000840AD60A0319D70A7E
:08032800F003031D8C290800FD
:100330008316031386120612061086100611861104
:1003400083128612061286110611861006100D20E1
:100350000D200D20861406148616032086120D200B
:100360008616032086120D208616032086120D2085
:1003700006108616032086120D208616032086128C
:10038000861086158616032086120D208611061407
:1003900086160320861206108616032086120D206C
:1003A00086160320861206148616032086120D2058
:1003B0000610861603208612861506158614061466
:0C03C0008616032086120D20551408003C
:1003CC00662383160313A001A101A201A301A401BA
:1003DC00A501A601A70103308312E9000030EA0051
:1003EC00EB01EC01ED01EE018316A801A901AA01B4
:1003FC00AB01FF30870088018312880198210130FE
:10040C008316BA0035200C308316BA003520003024
:10041C0083162B06031D142A00302A06031D292BD4
:10042C008312071D752A00306C06031D1F2A00302D
:10043C006B06031D752A0130EB000030EC00E90A55
:10044C000319EA0A00306A06031D2E2A04306906D5
:10045C00031D322AE901EA0100306A06031D382A1D
:10046C0000306906031D432A01308316AC000130AD
:10047C00AD004930AE004821752A00306A06031DD4
:10048C00492A01306906031D542A01308316AC0039
:10049C000130AD002E30AE004821752A00306A06BE
:1004AC00031D5A2A02306906031D652A0130831682
:1004BC00AC000130AD002030AE004821752A003070
:1004CC006A06031D6B2A03306906031D752A013069
:1004DC008316AC000130AD003B30AE00482107194B
:1004EC00792AEB01EC01871DBC2A00306E06031D36
:1004FC00812A00306D06031DBC2A6908F0006A08C9
:10050C00F100F00DF10D70107008A03E8400000891
:10051C00F100840A0008F20080307206F00080308E
:10052C007002031D9B2A0A3071020318BC2A013089
:10053C00ED000030EE006908F0006A08F100F00DE3
:10054C00F10D70107008A03EF200720884000008D3
:10055C00F000840A0008F100F00A0319F10A72088D
:10056C008400700880007108840A80008719C02AF2
:10057C00ED01EE01071E082B003083162906031D22
:10058C00C92A00302806031D082B83126908F000C5
:10059C006A08F100F00DF10D70107008A03E840097
:1005AC000008F100840A0008F2008030F00080306E
:1005BC0072067002031DE42A7108003C0318082B14
:1005CC0001308316A8000030A90083126908F000DE
:1005DC006A08F100F00DF10D70107008A03EF200E9
:1005EC00720884000008F000840A0008F100013051
:1005FC00F002031CF103720884007008800071087B
:10060C00840A80008312071A0E2B8316A801A901F5
:10061C0083126908F0006A08F100F00DF10D7010FA
:10062C007008A03E840000088316AC00840A000801
:10063C00AD005830AE00DE200230AC000130AD0011
:0A064C005830AE0048210D2A2A2B79
:1006CC0020308400353083120313F0003030D60014
:0806DC000330D7008C21080057
:1006600020342034203447345234453445344E3419
:0C067000203420342034203420340034A6
:10067C0020342034203442344C3455344534203426
:0A068C0020342034203420340034E0
:100696002034203420344D344934583445345234CF
:0C06A60020342034203420342034003470
:1006B200203420342034523445344434203420341D
:0806C200203420342034003400
:02400E004A2F37
:00000001FF
