:02000000862C4C
:0400060000000800EE
:10000A00083083120313FC002330FD00FD0B0B287C
:06001A00FC0B0B2808009E
:10002000103083120313FD00FD0B1428000008009C
:1000300083160313C91B1F288312861121288312DC
:1000400086158316491B2728831206112928831237
:1000500006158316C91A2F28831286103128831299
:1000600086148316491A37288312061039288312FA
:10007000061461183D2806163E280612861603202F
:1000800086128316C91947288312861149288312BC
:100090008615831649194F28831206115128831299
:1000A00006158316C91857288312861059288312FB
:1000B0008614831649185F2883120610612883125C
:1000C000061461186528061666280612861603208F
:0E00D0008612611C6D2805206E281020080085
:1000DE0083120313611083164808C9001820611497
:0200EE00080008
:1000F00083120313F801F9011030FC00710DF80DA3
:10010000F90D7408F8027508031C750FF90203183D
:1001100090287408F80775080318750FF90703107D
:0A012000F00DF10DFC0B7E28080025
:0E012A008312031363088A0062088200080033
:1001380083120313FB01FA01F9018030F800F10C76
:10014800F00C031CB0287408F90775080318750F1C
:10015800FA070318FB0A0310F01FB8287408FA07F7
:1001680075080318750FFB07FB0CFA0CF90CF80C53
:10017800031CA3287B08F3007A08F2007908F10031
:060188007808F0000800F9
:10018E0083160313C601053046020318D528460808
:10019E004507840020308000C60ACA284608450755
:1001AE0084008001C60346084507C7000A30F400E4
:1001BE00F5014308F0004408F10078207808F000BB
:1001CE007908F1003030F007831647088400700874
:1001DE0080000A30F400F5014308F0004408F100F5
:1001EE00782070088316C3007108C40000307106B1
:1001FE00031D032900307006031D06290829C603B6
:04020E00DA280800E2
:100212001B29803083160313C3002E29C030C3006C
:100222002E299430C3002E29D430C3002E298030C9
:10023200C3002E29831603134308013A03190A291E
:100242004308023A03190F294308033A03191229F2
:100252004308043A0319152918294403F0004308F6
:10026200F0077008C3007008C900182061108316D7
:10027200C6014608450784000008031949294608B3
:10028200450784000008C8006F208316C60A3A2971
:0602920083126114080054
:1002980083160313370884000008F100840A000855
:1002A800F20000307206031D5B2901307106031D40
:1002B8006E29831208168312871A6C29871C6B29EA
:1002C8008316370884008001840A80016C295F291D
:0602D800831288010800FA
:1002DE0083160313370884000008F100840A00080F
:1002EE00F20000307206031D7E2901307106031DD7
:1002FE009129831208168312871B8F29871C8E293A
:10030E008316370884008001840A80018F29822990
:06031E00831288010800B3
:1003240083160313BC01BD013708BE003808BF00A3
:1003340080303806F00080307002031DA32900309D
:1003440037020318B1290130BC000030BD00370862
:10035400003CBE003808031C013EBF01BF023E083A
:10036400C3003F08C4003908C500C7200630BA00DE
:100374000030BB003B08003C031DC2293A08003C86
:100384000318DD293A083907F20001303A02F00077
:100394000030031C013E3B02F10070083907840061
:1003A4000008F00072088400700880000130BA026E
:1003B400031CBB03BC2939088400203080003C089E
:1003C4003D040319FB29BA01BB013A08390784002B
:1003D4000008203A031DF229BA0A0319BB0AE729C7
:1003E4000130BA02031CBB033A08390784002D30DC
:0403F400800008007D
:1003F80083160313370884000008F100840A0008F4
:10040800F20000307206031D0B2A01307106031D2D
:100418001E2A831288168312071F1C2A871C1B2A70
:100428008316370884008001840A80011C2A0F2A59
:0604380083128801080098
:10043E0083160313390884000008F100840A0008AB
:10044E00F20000307206031D2E2A01307106031DC4
:10045E006A2A3708F0003808F1000A30F40000303C
:10046E00F5009C2070088316B7007108B80083123F
:10047E0088158316BA01BB0180303B06F000803030
:10048E0038067002031D4D2A37083A020318682AEF
:10049E008312871C592A8316390884008001840A26
:1004AE008001682A8230FC00DD30FD008316FD0BD2
:1004BE005D2AFC0B5D2A00000000BA0A0319BB0A74
:0804CE00432A83128801080093
:1004D60083160313390884000008F000840A000814
:1004E600F1000A30F4000030F5009C2070088316F5
:1004F600BB007108BC000230390784000008F00018
:10050600840A0008F1000A30F4000030F5009C204F
:1005160070088316BD007108BE00043039078400D8
:100526000008F000840A0008F1000A30F4000030E8
:10053600F5009C2070088316BF007108C0003708BC
:10054600F0003808F1000A30F4000030F5009C2075
:1005560070088316B7007108B80007308312880048
:100566008316C101C20180304206F0008030380691
:100576007002031DC02A370841020318FB2A4208ED
:100586003C06031DC82A3B084106031DCC2A8312DC
:100596000810831642083E06031DD32A3D0841066D
:1005A600031DD72A83128810831642084006031DAE
:1005B600DE2A3F084106031DE22A83120811831230
:1005C600871CEC2A83163A0884008001840A80017D
:1005D600FB2A8230FC00DD30FD008316FD0BF02A7D
:1005E600FC0BF02A00000000C10A0319C20AB62A51
:0605F600831288010800D9
:1005FC0095208A110A128000840AE20A0319E30A80
:08060C00F003031DFE2A0800A3
:1006140083160313370884000008F300840A0008D3
:10062400F4000130F5000030F60080307606F0006A
:1006340080307002031D202B033075020318502BE9
:100644007508F0007608F100F00DF10D70107008D7
:10065400370784000008F100840A0008F2008030A3
:100664007406F000803072067002031D3B2B710883
:10067400730203184C2B7508F0007608F100F00D96
:10068400F10D70107008370784000008F300840A25
:100694000008F400F50A0319F60A172B7308F00092
:0606A4007408F1000800DB
:1006AA008316031386120612061086100611861187
:1006BA00831286120612861106118610061005206C
:1006CA0005200520861406148616032086120520A6
:1006DA008616032086120520861603208612052018
:1006EA000610861603208612052086160320861217
:1006FA008610861586160320861205208611061492
:10070A0086160320861206108616032086120520F6
:10071A0086160320861206148616032086120520E2
:10072A0006108616032086128615061586140614E8
:0C073A00861603208612052061140800BA
:1007460083160313370884000008F100840A0008A2
:10075600F20000307206031DB22B01307106031D34
:10076600DD2B83120817F301F40180307406F000C4
:1007760080307002031DC12B1E3073020318DB2B61
:100786008312871CCD2B8316370884008001840AC8
:100796008001DB2B8230FC00DD30FD00FD0BD12B10
:1007A600FC0BD12B00000000F30A0319F40AB82B46
:0607B60083128801080017
:1007BC0083120313071D7C2C831638088400000851
:1007CC00F100840A0008F20000307206031DF02BC1
:1007DC0000307106031D7C2C380884000130800029
:1007EC000030840A8000370884000008F000840A76
:1007FC000008F100F00A0319F10A370884007008A8
:10080C0080007108840A8000370884000008F10019
:10081C00840A0008F20000307206031D172C043005
:10082C007106031D1E2C370884008001840A800188
:10083C00370884000008F100840A0008F200003038
:10084C007206031D2B2C00307106031D352C013054
:10085C00C3000130C4003A30C50009217C2C83163A
:10086C00370884000008F100840A0008F200003008
:10087C007206031D432C01307106031D4D2C0130F3
:10088C00C3000130C4005430C50009217C2C8316F0
:10089C00370884000008F100840A0008F2000030D8
:1008AC007206031D5B2C02307106031D652C013092
:1008BC00C3000130C4004630C50009217C2C8316CE
:1008CC00370884000008F100840A0008F2000030A8
:1008DC007206031D732C03307106031D7C2C013032
:1008EC00C3000130C4002430C5000921831207194C
:1008FC00852C8316380884008001840A8001080046
:10090C00122683120313E401E501E601E701E80175
:10091C00E901EA01EB010330EC000030ED00EE01DF
:10092C00EF018316B101B201B301B401B501B601F7
:10093C00FF3087008801831288015523013083160C
:10094C00C90018200C308316C90018208312871C8C
:10095C00B32C8316B501B601C32C8312071CC32C10
:10096C0001308316C3000E30C4002030C5000921AD
:10097C0001308316B5000030B60083160030360601
:10098C00031DCA2C00303506031D932D0130C30006
:10099C000E30C4003230C50009216C308316B7000C
:1009AC006E30B800DE2383120313871D222D003016
:1009BC0083163206031DE42C00303106031D222D54
:1009CC0083126C08F0006D08F100F00DF10D701041
:1009DC007008643E84000008F100840A0008F200EC
:1009EC0080307206F00080307002031DFF2C0A303C
:1009FC0071020318222D01308316B1000030B200B1
:100A0C0083126C08F0006D08F100F00DF10D701000
:100A1C007008643EF200720884000008F000840A3A
:100A2C000008F100F00A0319F10A7208840070083A
:100A3C0080007108840A800083128719282D831680
:100A4C00B101B2018312071E712D003083163406DA
:100A5C00031D322D00303306031D712D83126C08DB
:100A6C00F0006D08F100F00DF10D70107008643E8F
:100A7C0084000008F100840A0008F2008030F000C5
:100A8C00803072067002031D4D2D7108003C031856
:100A9C00712D01308316B3000030B40083126C0842
:100AAC00F0006D08F100F00DF10D70107008643E4F
:100ABC00F200720884000008F000840A0008F100BB
:100ACC000130F002031CF1037208840070088000EE
:100ADC007108840A80008312071A772D8316B301DC
:100AEC00B40183126C08F0006D08F100F00DF10DEB
:100AFC0070107008643E840000088316B700840AE6
:100B0C000008B800A030B90092210230C3000130B7
:100B1C00C400A030C5000921CA2D01308316C300C2
:100B2C000E30C4003630C500092164308316B7007E
:100B3C000A237008B7007108B8006430B900B530EA
:100B4C00BA006B226A088316B70083126B088316EF
:100B5C00B800B530B9001F22B53083160313B700A7
:100B6C004C21B53083160313B700FC21B530831626
:100B7C000313B7006F21B53083160313B700A323FB
:0C0B8C0083160313B501B601AC2CCB2D71
:100C240020308400413083120313F000D130E200FD
:080C34000530E300FE22080078
:080BA2004F344E3420340034BE
:100BAA002034203420344D344934583445345234B6
:0C0BBA0020342034203420342034003457
:080BC6004F344634463400347C
:080BCE004F344E342034003492
:100BD60020342034203452344534443420342034F4
:080BE6002034203420340034D7
:100BEE0020342034203447345234453445344E3486
:0C0BFE0020342034203420342034003413
:100C0A0020342034203442344C3455344534203492
:0A0C1A00203420342034203400344C
:02400E004A2F37
:00000001FF
